:100000000C942A000C9447000C9488000C94470030
:100010000C9447000C9447000C9447000C94470044
:100020000C9447000C9447000C9447000C94470034
:100030000C9447000C9447000C9447000C94470024
:100040000C9447000C9447000C9447000C94470014
:100050000C94470011241FBECFE5D8E0DEBFCDBF12
:1000600010E0A0E6B0E0E2E5F2E002C005900D92FB
:10007000A039B107D9F720E0A0E9B0E001C01D9296
:10008000A139B207E1F70E94C7000C9427010C9434
:100090000000FC0185E021E09191911101C00895DB
:1000A0009BBB88BBAFECB7E01197F1F700C0000035
:1000B00028BBBFE738E341E0B15030404040E1F7B2
:1000C00000C00000E9CF8BBB84E088BB8FEC97E0D9
:1000D0000197F1F700C0000018BA9FE728E381E01C
:1000E000915020408040E1F700C00000089581E079
:1000F0000E94630080E80E94630080919000882342
:1001000021F08CE690E00C94490080E690E0FBCF73
:100110001F920F920FB60F9211242F933F934F937C
:100120005F936F937F938F939F93AF93BF93EF935F
:10013000FF93839918C08091900091E08927809364
:1001400090005D9BFECF80EA8CB981E00E94630045
:1001500080E80E94630080919000811115C080E6C4
:1001600090E00E944900FF91EF91BF91AF919F9164
:100170008F917F916F915F914F913F912F910F9050
:100180000FBE0F901F9018958CE690E0EACF2FEFEE
:1001900084E39CE0215080409040E1F700C00000E3
:1001A0008FEF8ABB87B3876087BB88E30E946300B9
:1001B0008FEC97E00197F1F700C0000081E00E940A
:1001C00063008FEC97E00197F1F700C000008EE02C
:1001D0000E9463008FEC97E00197F1F700C00000E8
:1001E00080E80E9463008FEC97E00197F1F700C070
:1001F000000080E690E00E9449008B98939A85B7B2
:10020000837F886085BF8BB780688BBF789410BC74
:1002100083E389B988E18AB986E880BD5F9BFECF18
:100220008CB1803C19F40E947700F8CF803BB1F785
:10023000809190008111F7CF81E00E94630080E8F7
:100240000E9463008DE790E00E944900E7CFF89498
:02025000FFCFDE
:100252004E4F524D414C204D4F4445005045524661
:100262004F524D414E4345204D4F44450054484561
:10027200524D414C205448524F54544C494E470021
:00000001FF
