:100000000C942A000C943F000C943F000C943F0089
:100010000C943F000C943F000C943F000C943F0064
:100020000C943F000C943F000C943F000C943F0054
:100030000C943F000C943F000C943F000C943F0044
:100040000C943F000C943F000C943F000C943F0034
:100050000C943F0011241FBECFE5D8E0DEBFCDBF1A
:1000600010E0A0E6B0E0EAE2F2E002C005900D92F6
:10007000AC37B107D9F70E94AC000C9413010C9473
:100080000000623091F0C498A89A8FB9779BFECF98
:1000900085E38A95F1F700008FEF8FB9779BFECF4C
:1000A0008FB1613029F4C49A0895C49AA898EDCF0D
:1000B000A89A08958BBB85E088BB8FEC97E00197E9
:1000C000F1F700C0000081E088BB9FE728E381E0F2
:1000D000915020408040E1F700C0000008958BBBA4
:1000E00084E088BB8FEC97E00197F1F700C0000037
:1000F00018BA9FE728E381E0915020408040E1F763
:1001000000C0000008950F931F93CF93DF93082F33
:10011000162F81E00E946F0080E80E946F00C0E609
:10012000D0E08991811112C0802F0E945A0080EC8A
:100130000E946F00CEE6D0E0899181110AC0812F24
:10014000DF91CF911F910F910C945A000E945A0099
:10015000E8CF0E945A00F0CF8FEF8ABB87B3876049
:1001600087BB88E30E946F008FEC97E00197F1F75F
:1001700000C0000081E00E946F008FEC97E00197C3
:10018000F1F700C000008EE00E946F008FEC97E056
:100190000197F1F700C0000080E80E946F008FEC2B
:1001A00097E00197F1F700C0000081B3877C81BB25
:1001B00082B3886382BB87B3806B87BBBE98A09AEB
:1001C00081E58DB960E280E20E948300839917C0C7
:1001D00061E081E30E944100C82F62E081E30E9458
:1001E0004100682F8C2F0E9483009FEF22E587E05B
:1001F000915020408040E1F700C00000E7CF849993
:1002000008C061E082E30E944100C82F62E082E3FF
:10021000E6CF8599DBCF61E088E50E944100C82FD9
:0A02200062E088E5DCCFF894FFCF20
:10022A00536C6176653120446174613A2000536CE5
:0C023A006176653220446174613A200056
:00000001FF
