:100000000C942A000C943F000C943F000C943F0089
:100010000C943F000C943F000C943F000C943F0064
:100020000C943F000C943F000C943F000C943F0054
:100030000C9441000C943F000C943F000C943F0042
:100040000C943F000C943F000C943F000C943F0034
:100050000C943F0011241FBECFE5D8E0DEBFCDBF1A
:1000600010E0A0E6B0E0E4ECF0E002C005900D92F4
:10007000A236B107D9F70E9458000C9460000C9486
:1000800000001F920F920FB60F9211248F938FB121
:10009000813361F481E480936000809160008FB9C6
:1000A0008F910F900FBE0F901F90189583E4F3CFA0
:1000B00087B38F7487BBBE9A80EC8DB97894FFCFDD
:0400C000F894FFCFE2
:0200C4004300F7
:00000001FF
